{
	"_format": "hh-sol-artifact-1",
	"contractName": "myNFT",
	"sourceName": "contracts/myNFT.sol",
	"abi": [
		{
			"inputs": [
				{
					"internalType": "string",
					"name": "metaDataCID",
					"type": "string"
				},
				{
					"internalType": "string",
					"name": "imgCID",
					"type": "string"
				}
			],
			"stateMutability": "nonpayable",
			"type": "constructor"
		},
		{
			"anonymous": false,
			"inputs": [
				{
					"indexed": true,
					"internalType": "address",
					"name": "owner",
					"type": "address"
				},
				{
					"indexed": true,
					"internalType": "address",
					"name": "approved",
					"type": "address"
				},
				{
					"indexed": true,
					"internalType": "uint256",
					"name": "tokenId",
					"type": "uint256"
				}
			],
			"name": "Approval",
			"type": "event"
		},
		{
			"anonymous": false,
			"inputs": [
				{
					"indexed": true,
					"internalType": "address",
					"name": "owner",
					"type": "address"
				},
				{
					"indexed": true,
					"internalType": "address",
					"name": "operator",
					"type": "address"
				},
				{
					"indexed": false,
					"internalType": "bool",
					"name": "approved",
					"type": "bool"
				}
			],
			"name": "ApprovalForAll",
			"type": "event"
		},
		{
			"anonymous": false,
			"inputs": [
				{
					"indexed": true,
					"internalType": "address",
					"name": "previousOwner",
					"type": "address"
				},
				{
					"indexed": true,
					"internalType": "address",
					"name": "newOwner",
					"type": "address"
				}
			],
			"name": "OwnershipTransferred",
			"type": "event"
		},
		{
			"anonymous": false,
			"inputs": [
				{
					"indexed": true,
					"internalType": "address",
					"name": "from",
					"type": "address"
				},
				{
					"indexed": true,
					"internalType": "address",
					"name": "to",
					"type": "address"
				},
				{
					"indexed": true,
					"internalType": "uint256",
					"name": "tokenId",
					"type": "uint256"
				}
			],
			"name": "Transfer",
			"type": "event"
		},
		{
			"inputs": [
				{
					"internalType": "address",
					"name": "to",
					"type": "address"
				},
				{
					"internalType": "uint256",
					"name": "tokenId",
					"type": "uint256"
				}
			],
			"name": "approve",
			"outputs": [],
			"stateMutability": "nonpayable",
			"type": "function"
		},
		{
			"inputs": [
				{
					"internalType": "address",
					"name": "owner",
					"type": "address"
				}
			],
			"name": "balanceOf",
			"outputs": [
				{
					"internalType": "uint256",
					"name": "",
					"type": "uint256"
				}
			],
			"stateMutability": "view",
			"type": "function"
		},
		{
			"inputs": [
				{
					"internalType": "uint256",
					"name": "tokenId",
					"type": "uint256"
				}
			],
			"name": "getApproved",
			"outputs": [
				{
					"internalType": "address",
					"name": "",
					"type": "address"
				}
			],
			"stateMutability": "view",
			"type": "function"
		},
		{
			"inputs": [],
			"name": "getImgData",
			"outputs": [
				{
					"internalType": "string",
					"name": "",
					"type": "string"
				}
			],
			"stateMutability": "view",
			"type": "function"
		},
		{
			"inputs": [],
			"name": "getMetaData",
			"outputs": [
				{
					"internalType": "string",
					"name": "",
					"type": "string"
				}
			],
			"stateMutability": "view",
			"type": "function"
		},
		{
			"inputs": [],
			"name": "getMinted",
			"outputs": [
				{
					"internalType": "bool[]",
					"name": "",
					"type": "bool[]"
				}
			],
			"stateMutability": "view",
			"type": "function"
		},
		{
			"inputs": [],
			"name": "getMintedCount",
			"outputs": [
				{
					"internalType": "uint256",
					"name": "",
					"type": "uint256"
				}
			],
			"stateMutability": "view",
			"type": "function"
		},
		{
			"inputs": [],
			"name": "getTokens",
			"outputs": [
				{
					"internalType": "string[]",
					"name": "",
					"type": "string[]"
				}
			],
			"stateMutability": "view",
			"type": "function"
		},
		{
			"inputs": [
				{
					"internalType": "address",
					"name": "owner",
					"type": "address"
				},
				{
					"internalType": "address",
					"name": "operator",
					"type": "address"
				}
			],
			"name": "isApprovedForAll",
			"outputs": [
				{
					"internalType": "bool",
					"name": "",
					"type": "bool"
				}
			],
			"stateMutability": "view",
			"type": "function"
		},
		{
			"inputs": [],
			"name": "name",
			"outputs": [
				{
					"internalType": "string",
					"name": "",
					"type": "string"
				}
			],
			"stateMutability": "view",
			"type": "function"
		},
		{
			"inputs": [],
			"name": "owner",
			"outputs": [
				{
					"internalType": "address",
					"name": "",
					"type": "address"
				}
			],
			"stateMutability": "view",
			"type": "function"
		},
		{
			"inputs": [
				{
					"internalType": "uint256",
					"name": "tokenId",
					"type": "uint256"
				}
			],
			"name": "ownerOf",
			"outputs": [
				{
					"internalType": "address",
					"name": "",
					"type": "address"
				}
			],
			"stateMutability": "view",
			"type": "function"
		},
		{
			"inputs": [
				{
					"internalType": "string",
					"name": "uri",
					"type": "string"
				}
			],
			"name": "payMint",
			"outputs": [],
			"stateMutability": "payable",
			"type": "function"
		},
		{
			"inputs": [],
			"name": "renounceOwnership",
			"outputs": [],
			"stateMutability": "nonpayable",
			"type": "function"
		},
		{
			"inputs": [
				{
					"internalType": "address",
					"name": "to",
					"type": "address"
				},
				{
					"internalType": "string",
					"name": "uri",
					"type": "string"
				}
			],
			"name": "safeMint",
			"outputs": [],
			"stateMutability": "nonpayable",
			"type": "function"
		},
		{
			"inputs": [
				{
					"internalType": "address",
					"name": "from",
					"type": "address"
				},
				{
					"internalType": "address",
					"name": "to",
					"type": "address"
				},
				{
					"internalType": "uint256",
					"name": "tokenId",
					"type": "uint256"
				}
			],
			"name": "safeTransferFrom",
			"outputs": [],
			"stateMutability": "nonpayable",
			"type": "function"
		},
		{
			"inputs": [
				{
					"internalType": "address",
					"name": "from",
					"type": "address"
				},
				{
					"internalType": "address",
					"name": "to",
					"type": "address"
				},
				{
					"internalType": "uint256",
					"name": "tokenId",
					"type": "uint256"
				},
				{
					"internalType": "bytes",
					"name": "data",
					"type": "bytes"
				}
			],
			"name": "safeTransferFrom",
			"outputs": [],
			"stateMutability": "nonpayable",
			"type": "function"
		},
		{
			"inputs": [
				{
					"internalType": "address",
					"name": "operator",
					"type": "address"
				},
				{
					"internalType": "bool",
					"name": "approved",
					"type": "bool"
				}
			],
			"name": "setApprovalForAll",
			"outputs": [],
			"stateMutability": "nonpayable",
			"type": "function"
		},
		{
			"inputs": [
				{
					"internalType": "bytes4",
					"name": "interfaceId",
					"type": "bytes4"
				}
			],
			"name": "supportsInterface",
			"outputs": [
				{
					"internalType": "bool",
					"name": "",
					"type": "bool"
				}
			],
			"stateMutability": "view",
			"type": "function"
		},
		{
			"inputs": [],
			"name": "symbol",
			"outputs": [
				{
					"internalType": "string",
					"name": "",
					"type": "string"
				}
			],
			"stateMutability": "view",
			"type": "function"
		},
		{
			"inputs": [
				{
					"internalType": "uint256",
					"name": "tokenId",
					"type": "uint256"
				}
			],
			"name": "tokenURI",
			"outputs": [
				{
					"internalType": "string",
					"name": "",
					"type": "string"
				}
			],
			"stateMutability": "view",
			"type": "function"
		},
		{
			"inputs": [
				{
					"internalType": "address",
					"name": "from",
					"type": "address"
				},
				{
					"internalType": "address",
					"name": "to",
					"type": "address"
				},
				{
					"internalType": "uint256",
					"name": "tokenId",
					"type": "uint256"
				}
			],
			"name": "transferFrom",
			"outputs": [],
			"stateMutability": "nonpayable",
			"type": "function"
		},
		{
			"inputs": [
				{
					"internalType": "address",
					"name": "newOwner",
					"type": "address"
				}
			],
			"name": "transferOwnership",
			"outputs": [],
			"stateMutability": "nonpayable",
			"type": "function"
		},
		{
			"inputs": [],
			"name": "withdraw",
			"outputs": [],
			"stateMutability": "nonpayable",
			"type": "function"
		}
	],
	"bytecode": "0x60806040523480156200001157600080fd5b50604051620041363803806200413683398181016040528101906200003791906200037e565b6040518060400160405280600a81526020017f536d696c657946616365000000000000000000000000000000000000000000008152506040518060400160405280600281526020017f53460000000000000000000000000000000000000000000000000000000000008152508160009081620000b491906200064e565b508060019081620000c691906200064e565b505050620000e9620000dd6200011d60201b60201c565b6200012560201b60201c565b8160099081620000fa91906200064e565b5080600a90816200010c91906200064e565b506000600881905550505062000735565b600033905090565b6000600760009054906101000a900473ffffffffffffffffffffffffffffffffffffffff16905081600760006101000a81548173ffffffffffffffffffffffffffffffffffffffff021916908373ffffffffffffffffffffffffffffffffffffffff1602179055508173ffffffffffffffffffffffffffffffffffffffff168173ffffffffffffffffffffffffffffffffffffffff167f8be0079c531659141344cd1fd0a4f28419497f9722a3daafe3b4186f6b6457e060405160405180910390a35050565b6000604051905090565b600080fd5b600080fd5b600080fd5b600080fd5b6000601f19601f8301169050919050565b7f4e487b7100000000000000000000000000000000000000000000000000000000600052604160045260246000fd5b620002548262000209565b810181811067ffffffffffffffff821117156200027657620002756200021a565b5b80604052505050565b60006200028b620001eb565b905062000299828262000249565b919050565b600067ffffffffffffffff821115620002bc57620002bb6200021a565b5b620002c78262000209565b9050602081019050919050565b60005b83811015620002f4578082015181840152602081019050620002d7565b60008484015250505050565b60006200031762000311846200029e565b6200027f565b90508281526020810184848401111562000336576200033562000204565b5b62000343848285620002d4565b509392505050565b600082601f830112620003635762000362620001ff565b5b81516200037584826020860162000300565b91505092915050565b60008060408385031215620003985762000397620001f5565b5b600083015167ffffffffffffffff811115620003b957620003b8620001fa565b5b620003c7858286016200034b565b925050602083015167ffffffffffffffff811115620003eb57620003ea620001fa565b5b620003f9858286016200034b565b9150509250929050565b600081519050919050565b7f4e487b7100000000000000000000000000000000000000000000000000000000600052602260045260246000fd5b600060028204905060018216806200045657607f821691505b6020821081036200046c576200046b6200040e565b5b50919050565b60008190508160005260206000209050919050565b60006020601f8301049050919050565b600082821b905092915050565b600060088302620004d67fffffffffffffffffffffffffffffffffffffffffffffffffffffffffffffffff8262000497565b620004e2868362000497565b95508019841693508086168417925050509392505050565b6000819050919050565b6000819050919050565b60006200052f620005296200052384620004fa565b62000504565b620004fa565b9050919050565b6000819050919050565b6200054b836200050e565b620005636200055a8262000536565b848454620004a4565b825550505050565b600090565b6200057a6200056b565b6200058781848462000540565b505050565b5b81811015620005af57620005a360008262000570565b6001810190506200058d565b5050565b601f821115620005fe57620005c88162000472565b620005d38462000487565b81016020851015620005e3578190505b620005fb620005f28562000487565b8301826200058c565b50505b505050565b600082821c905092915050565b6000620006236000198460080262000603565b1980831691505092915050565b60006200063e838362000610565b9150826002028217905092915050565b620006598262000403565b67ffffffffffffffff8111156200067557620006746200021a565b5b6200068182546200043d565b6200068e828285620005b3565b600060209050601f831160018114620006c65760008415620006b1578287015190505b620006bd858262000630565b8655506200072d565b601f198416620006d68662000472565b60005b828110156200070057848901518255600182019150602085019450602081019050620006d9565b868310156200072057848901516200071c601f89168262000610565b8355505b6001600288020188555050505b505050505050565b6139f180620007456000396000f3fe60806040526004361061014b5760003560e01c8063a22cb465116100b6578063d2786ba41161006f578063d2786ba41461047c578063d384f739146104a7578063e6ff51b0146104d2578063e985e9c5146104ee578063ebc9bd3b1461052b578063f2fde38b146105565761014b565b8063a22cb4651461036e578063aa6ca80814610397578063ac72200d146103c2578063b88d4fde146103ed578063c87b56dd14610416578063d204c45e146104535761014b565b806342842e0e1161010857806342842e0e1461025e5780636352211e1461028757806370a08231146102c4578063715018a6146103015780638da5cb5b1461031857806395d89b41146103435761014b565b806301ffc9a71461015057806306fdde031461018d578063081812fc146101b8578063095ea7b3146101f557806323b872dd1461021e5780633ccfd60b14610247575b600080fd5b34801561015c57600080fd5b50610177600480360381019061017291906123c2565b61057f565b604051610184919061240a565b60405180910390f35b34801561019957600080fd5b506101a2610661565b6040516101af91906124b5565b60405180910390f35b3480156101c457600080fd5b506101df60048036038101906101da919061250d565b6106f3565b6040516101ec919061257b565b60405180910390f35b34801561020157600080fd5b5061021c600480360381019061021791906125c2565b610739565b005b34801561022a57600080fd5b5061024560048036038101906102409190612602565b610850565b005b34801561025357600080fd5b5061025c6108b0565b005b34801561026a57600080fd5b5061028560048036038101906102809190612602565b610901565b005b34801561029357600080fd5b506102ae60048036038101906102a9919061250d565b610921565b6040516102bb919061257b565b60405180910390f35b3480156102d057600080fd5b506102eb60048036038101906102e69190612655565b6109a7565b6040516102f89190612691565b60405180910390f35b34801561030d57600080fd5b50610316610a5e565b005b34801561032457600080fd5b5061032d610a72565b60405161033a919061257b565b60405180910390f35b34801561034f57600080fd5b50610358610a9c565b60405161036591906124b5565b60405180910390f35b34801561037a57600080fd5b50610395600480360381019061039091906126d8565b610b2e565b005b3480156103a357600080fd5b506103ac610b44565b6040516103b99190612824565b60405180910390f35b3480156103ce57600080fd5b506103d7610c5a565b6040516103e49190612904565b60405180910390f35b3480156103f957600080fd5b50610414600480360381019061040f9190612a5b565b610d2c565b005b34801561042257600080fd5b5061043d6004803603810190610438919061250d565b610d8e565b60405161044a91906124b5565b60405180910390f35b34801561045f57600080fd5b5061047a60048036038101906104759190612b7f565b610da0565b005b34801561048857600080fd5b50610491610e54565b60405161049e91906124b5565b60405180910390f35b3480156104b357600080fd5b506104bc610ee6565b6040516104c991906124b5565b60405180910390f35b6104ec60048036038101906104e79190612bdb565b610f78565b005b3480156104fa57600080fd5b5061051560048036038101906105109190612c24565b611116565b604051610522919061240a565b60405180910390f35b34801561053757600080fd5b506105406111aa565b60405161054d9190612691565b60405180910390f35b34801561056257600080fd5b5061057d60048036038101906105789190612655565b6111b4565b005b60007f80ac58cd000000000000000000000000000000000000000000000000000000007bffffffffffffffffffffffffffffffffffffffffffffffffffffffff1916827bffffffffffffffffffffffffffffffffffffffffffffffffffffffff1916148061064a57507f5b5e139f000000000000000000000000000000000000000000000000000000007bffffffffffffffffffffffffffffffffffffffffffffffffffffffff1916827bffffffffffffffffffffffffffffffffffffffffffffffffffffffff1916145b8061065a575061065982611237565b5b9050919050565b60606000805461067090612c93565b80601f016020809104026020016040519081016040528092919081815260200182805461069c90612c93565b80156106e95780601f106106be576101008083540402835291602001916106e9565b820191906000526020600020905b8154815290600101906020018083116106cc57829003601f168201915b5050505050905090565b60006106fe826112a1565b6004600083815260200190815260200160002060009054906101000a900473ffffffffffffffffffffffffffffffffffffffff169050919050565b600061074482610921565b90508073ffffffffffffffffffffffffffffffffffffffff168373ffffffffffffffffffffffffffffffffffffffff16036107b4576040517f08c379a00000000000000000000000000000000000000000000000000000000081526004016107ab90612d36565b60405180910390fd5b8073ffffffffffffffffffffffffffffffffffffffff166107d36112ec565b73ffffffffffffffffffffffffffffffffffffffff1614806108025750610801816107fc6112ec565b611116565b5b610841576040517f08c379a000000000000000000000000000000000000000000000000000000000815260040161083890612dc8565b60405180910390fd5b61084b83836112f4565b505050565b61086161085b6112ec565b826113ad565b6108a0576040517f08c379a000000000000000000000000000000000000000000000000000000000815260040161089790612e5a565b60405180910390fd5b6108ab838383611442565b505050565b6108b861173b565b3373ffffffffffffffffffffffffffffffffffffffff166108fc479081150290604051600060405180830381858888f193505050501580156108fe573d6000803e3d6000fd5b50565b61091c83838360405180602001604052806000815250610d2c565b505050565b60008061092d836117b9565b9050600073ffffffffffffffffffffffffffffffffffffffff168173ffffffffffffffffffffffffffffffffffffffff160361099e576040517f08c379a000000000000000000000000000000000000000000000000000000000815260040161099590612ec6565b60405180910390fd5b80915050919050565b60008073ffffffffffffffffffffffffffffffffffffffff168273ffffffffffffffffffffffffffffffffffffffff1603610a17576040517f08c379a0000000000000000000000000000000000000000000000000000000008152600401610a0e90612f58565b60405180910390fd5b600360008373ffffffffffffffffffffffffffffffffffffffff1673ffffffffffffffffffffffffffffffffffffffff168152602001908152602001600020549050919050565b610a6661173b565b610a7060006117f6565b565b6000600760009054906101000a900473ffffffffffffffffffffffffffffffffffffffff16905090565b606060018054610aab90612c93565b80601f0160208091040260200160405190810160405280929190818152602001828054610ad790612c93565b8015610b245780601f10610af957610100808354040283529160200191610b24565b820191906000526020600020905b815481529060010190602001808311610b0757829003601f168201915b5050505050905090565b610b40610b396112ec565b83836118bc565b5050565b6060600c60003373ffffffffffffffffffffffffffffffffffffffff1673ffffffffffffffffffffffffffffffffffffffff168152602001908152602001600020805480602002602001604051908101604052809291908181526020016000905b82821015610c51578382906000526020600020018054610bc490612c93565b80601f0160208091040260200160405190810160405280929190818152602001828054610bf090612c93565b8015610c3d5780601f10610c1257610100808354040283529160200191610c3d565b820191906000526020600020905b815481529060010190602001808311610c2057829003601f168201915b505050505081526020019060010190610ba5565b50505050905090565b6060600060085467ffffffffffffffff811115610c7a57610c79612930565b5b604051908082528060200260200182016040528015610ca85781602001602082028036833780820191505090505b50905060005b600854811015610d2457600b610cc382610d8e565b604051610cd09190612fb4565b908152602001604051809103902060009054906101000a900460ff16828281518110610cff57610cfe612fcb565b5b6020026020010190151590811515815250508080610d1c90613029565b915050610cae565b508091505090565b610d3d610d376112ec565b836113ad565b610d7c576040517f08c379a0000000000000000000000000000000000000000000000000000000008152600401610d7390612e5a565b60405180910390fd5b610d8884848484611a28565b50505050565b6060610d9982611a84565b9050919050565b610da861173b565b60001515600b82604051610dbc9190612fb4565b908152602001604051809103902060009054906101000a900460ff16151514610e1a576040517f08c379a0000000000000000000000000000000000000000000000000000000008152600401610e11906130bd565b60405180910390fd5b60006008549050600160086000828254610e3491906130dd565b92505081905550610e458382611b96565b610e4f8183611bb4565b505050565b606060098054610e6390612c93565b80601f0160208091040260200160405190810160405280929190818152602001828054610e8f90612c93565b8015610edc5780601f10610eb157610100808354040283529160200191610edc565b820191906000526020600020905b815481529060010190602001808311610ebf57829003601f168201915b5050505050905090565b6060600a8054610ef590612c93565b80601f0160208091040260200160405190810160405280929190818152602001828054610f2190612c93565b8015610f6e5780601f10610f4357610100808354040283529160200191610f6e565b820191906000526020600020905b815481529060010190602001808311610f5157829003601f168201915b5050505050905090565b662386f26fc10000341015610fc2576040517f08c379a0000000000000000000000000000000000000000000000000000000008152600401610fb99061315d565b60405180910390fd5b60001515600b82604051610fd69190612fb4565b908152602001604051809103902060009054906101000a900460ff16151514611034576040517f08c379a000000000000000000000000000000000000000000000000000000000815260040161102b906130bd565b60405180910390fd5b600c60003373ffffffffffffffffffffffffffffffffffffffff1673ffffffffffffffffffffffffffffffffffffffff168152602001908152602001600020819080600181540180825580915050600190039060005260206000200160009091909190915090816110a59190613329565b506001600b826040516110b89190612fb4565b908152602001604051809103902060006101000a81548160ff021916908315150217905550600060085490506001600860008282546110f791906130dd565b925050819055506111083382611b96565b6111128183611bb4565b5050565b6000600560008473ffffffffffffffffffffffffffffffffffffffff1673ffffffffffffffffffffffffffffffffffffffff16815260200190815260200160002060008373ffffffffffffffffffffffffffffffffffffffff1673ffffffffffffffffffffffffffffffffffffffff16815260200190815260200160002060009054906101000a900460ff16905092915050565b6000600854905090565b6111bc61173b565b600073ffffffffffffffffffffffffffffffffffffffff168173ffffffffffffffffffffffffffffffffffffffff160361122b576040517f08c379a00000000000000000000000000000000000000000000000000000000081526004016112229061346d565b60405180910390fd5b611234816117f6565b50565b60007f01ffc9a7000000000000000000000000000000000000000000000000000000007bffffffffffffffffffffffffffffffffffffffffffffffffffffffff1916827bffffffffffffffffffffffffffffffffffffffffffffffffffffffff1916149050919050565b6112aa81611c21565b6112e9576040517f08c379a00000000000000000000000000000000000000000000000000000000081526004016112e090612ec6565b60405180910390fd5b50565b600033905090565b816004600083815260200190815260200160002060006101000a81548173ffffffffffffffffffffffffffffffffffffffff021916908373ffffffffffffffffffffffffffffffffffffffff160217905550808273ffffffffffffffffffffffffffffffffffffffff1661136783610921565b73ffffffffffffffffffffffffffffffffffffffff167f8c5be1e5ebec7d5bd14f71427d1e84f3dd0314c0f7b2291e5b200ac8c7c3b92560405160405180910390a45050565b6000806113b983610921565b90508073ffffffffffffffffffffffffffffffffffffffff168473ffffffffffffffffffffffffffffffffffffffff1614806113fb57506113fa8185611116565b5b8061143957508373ffffffffffffffffffffffffffffffffffffffff16611421846106f3565b73ffffffffffffffffffffffffffffffffffffffff16145b91505092915050565b8273ffffffffffffffffffffffffffffffffffffffff1661146282610921565b73ffffffffffffffffffffffffffffffffffffffff16146114b8576040517f08c379a00000000000000000000000000000000000000000000000000000000081526004016114af906134ff565b60405180910390fd5b600073ffffffffffffffffffffffffffffffffffffffff168273ffffffffffffffffffffffffffffffffffffffff1603611527576040517f08c379a000000000000000000000000000000000000000000000000000000000815260040161151e90613591565b60405180910390fd5b6115348383836001611c62565b8273ffffffffffffffffffffffffffffffffffffffff1661155482610921565b73ffffffffffffffffffffffffffffffffffffffff16146115aa576040517f08c379a00000000000000000000000000000000000000000000000000000000081526004016115a1906134ff565b60405180910390fd5b6004600082815260200190815260200160002060006101000a81549073ffffffffffffffffffffffffffffffffffffffff02191690556001600360008573ffffffffffffffffffffffffffffffffffffffff1673ffffffffffffffffffffffffffffffffffffffff168152602001908152602001600020600082825403925050819055506001600360008473ffffffffffffffffffffffffffffffffffffffff1673ffffffffffffffffffffffffffffffffffffffff16815260200190815260200160002060008282540192505081905550816002600083815260200190815260200160002060006101000a81548173ffffffffffffffffffffffffffffffffffffffff021916908373ffffffffffffffffffffffffffffffffffffffff160217905550808273ffffffffffffffffffffffffffffffffffffffff168473ffffffffffffffffffffffffffffffffffffffff167fddf252ad1be2c89b69c2b068fc378daa952ba7f163c4a11628f55a4df523b3ef60405160405180910390a46117368383836001611c68565b505050565b6117436112ec565b73ffffffffffffffffffffffffffffffffffffffff16611761610a72565b73ffffffffffffffffffffffffffffffffffffffff16146117b7576040517f08c379a00000000000000000000000000000000000000000000000000000000081526004016117ae906135fd565b60405180910390fd5b565b60006002600083815260200190815260200160002060009054906101000a900473ffffffffffffffffffffffffffffffffffffffff169050919050565b6000600760009054906101000a900473ffffffffffffffffffffffffffffffffffffffff16905081600760006101000a81548173ffffffffffffffffffffffffffffffffffffffff021916908373ffffffffffffffffffffffffffffffffffffffff1602179055508173ffffffffffffffffffffffffffffffffffffffff168173ffffffffffffffffffffffffffffffffffffffff167f8be0079c531659141344cd1fd0a4f28419497f9722a3daafe3b4186f6b6457e060405160405180910390a35050565b8173ffffffffffffffffffffffffffffffffffffffff168373ffffffffffffffffffffffffffffffffffffffff160361192a576040517f08c379a000000000000000000000000000000000000000000000000000000000815260040161192190613669565b60405180910390fd5b80600560008573ffffffffffffffffffffffffffffffffffffffff1673ffffffffffffffffffffffffffffffffffffffff16815260200190815260200160002060008473ffffffffffffffffffffffffffffffffffffffff1673ffffffffffffffffffffffffffffffffffffffff16815260200190815260200160002060006101000a81548160ff0219169083151502179055508173ffffffffffffffffffffffffffffffffffffffff168373ffffffffffffffffffffffffffffffffffffffff167f17307eab39ab6107e8899845ad3d59bd9653f200f220920489ca2b5937696c3183604051611a1b919061240a565b60405180910390a3505050565b611a33848484611442565b611a3f84848484611c6e565b611a7e576040517f08c379a0000000000000000000000000000000000000000000000000000000008152600401611a75906136fb565b60405180910390fd5b50505050565b6060611a8f826112a1565b6000600660008481526020019081526020016000208054611aaf90612c93565b80601f0160208091040260200160405190810160405280929190818152602001828054611adb90612c93565b8015611b285780601f10611afd57610100808354040283529160200191611b28565b820191906000526020600020905b815481529060010190602001808311611b0b57829003601f168201915b505050505090506000611b39611df5565b90506000815103611b4e578192505050611b91565b600082511115611b83578082604051602001611b6b92919061371b565b60405160208183030381529060405292505050611b91565b611b8c84611e32565b925050505b919050565b611bb0828260405180602001604052806000815250611e9a565b5050565b611bbd82611c21565b611bfc576040517f08c379a0000000000000000000000000000000000000000000000000000000008152600401611bf3906137b1565b60405180910390fd5b80600660008481526020019081526020016000209081611c1c9190613329565b505050565b60008073ffffffffffffffffffffffffffffffffffffffff16611c43836117b9565b73ffffffffffffffffffffffffffffffffffffffff1614159050919050565b50505050565b50505050565b6000611c8f8473ffffffffffffffffffffffffffffffffffffffff16611ef5565b15611de8578373ffffffffffffffffffffffffffffffffffffffff1663150b7a02611cb86112ec565b8786866040518563ffffffff1660e01b8152600401611cda9493929190613826565b6020604051808303816000875af1925050508015611d1657506040513d601f19601f82011682018060405250810190611d139190613887565b60015b611d98573d8060008114611d46576040519150601f19603f3d011682016040523d82523d6000602084013e611d4b565b606091505b506000815103611d90576040517f08c379a0000000000000000000000000000000000000000000000000000000008152600401611d87906136fb565b60405180910390fd5b805181602001fd5b63150b7a0260e01b7bffffffffffffffffffffffffffffffffffffffffffffffffffffffff1916817bffffffffffffffffffffffffffffffffffffffffffffffffffffffff191614915050611ded565b600190505b949350505050565b60606040518060400160405280600781526020017f697066733a2f2f00000000000000000000000000000000000000000000000000815250905090565b6060611e3d826112a1565b6000611e47611df5565b90506000815111611e675760405180602001604052806000815250611e92565b80611e7184611f18565b604051602001611e8292919061371b565b6040516020818303038152906040525b915050919050565b611ea48383611fe6565b611eb16000848484611c6e565b611ef0576040517f08c379a0000000000000000000000000000000000000000000000000000000008152600401611ee7906136fb565b60405180910390fd5b505050565b6000808273ffffffffffffffffffffffffffffffffffffffff163b119050919050565b606060006001611f2784612203565b01905060008167ffffffffffffffff811115611f4657611f45612930565b5b6040519080825280601f01601f191660200182016040528015611f785781602001600182028036833780820191505090505b509050600082602001820190505b600115611fdb578080600190039150507f3031323334353637383961626364656600000000000000000000000000000000600a86061a8153600a8581611fcf57611fce6138b4565b5b04945060008503611f86575b819350505050919050565b600073ffffffffffffffffffffffffffffffffffffffff168273ffffffffffffffffffffffffffffffffffffffff1603612055576040517f08c379a000000000000000000000000000000000000000000000000000000000815260040161204c9061392f565b60405180910390fd5b61205e81611c21565b1561209e576040517f08c379a00000000000000000000000000000000000000000000000000000000081526004016120959061399b565b60405180910390fd5b6120ac600083836001611c62565b6120b581611c21565b156120f5576040517f08c379a00000000000000000000000000000000000000000000000000000000081526004016120ec9061399b565b60405180910390fd5b6001600360008473ffffffffffffffffffffffffffffffffffffffff1673ffffffffffffffffffffffffffffffffffffffff16815260200190815260200160002060008282540192505081905550816002600083815260200190815260200160002060006101000a81548173ffffffffffffffffffffffffffffffffffffffff021916908373ffffffffffffffffffffffffffffffffffffffff160217905550808273ffffffffffffffffffffffffffffffffffffffff16600073ffffffffffffffffffffffffffffffffffffffff167fddf252ad1be2c89b69c2b068fc378daa952ba7f163c4a11628f55a4df523b3ef60405160405180910390a46121ff600083836001611c68565b5050565b600080600090507a184f03e93ff9f4daa797ed6e38ed64bf6a1f0100000000000000008310612261577a184f03e93ff9f4daa797ed6e38ed64bf6a1f0100000000000000008381612257576122566138b4565b5b0492506040810190505b6d04ee2d6d415b85acef8100000000831061229e576d04ee2d6d415b85acef81000000008381612294576122936138b4565b5b0492506020810190505b662386f26fc1000083106122cd57662386f26fc1000083816122c3576122c26138b4565b5b0492506010810190505b6305f5e10083106122f6576305f5e10083816122ec576122eb6138b4565b5b0492506008810190505b612710831061231b576127108381612311576123106138b4565b5b0492506004810190505b6064831061233e5760648381612334576123336138b4565b5b0492506002810190505b600a831061234d576001810190505b80915050919050565b6000604051905090565b600080fd5b600080fd5b60007fffffffff0000000000000000000000000000000000000000000000000000000082169050919050565b61239f8161236a565b81146123aa57600080fd5b50565b6000813590506123bc81612396565b92915050565b6000602082840312156123d8576123d7612360565b5b60006123e6848285016123ad565b91505092915050565b60008115159050919050565b612404816123ef565b82525050565b600060208201905061241f60008301846123fb565b92915050565b600081519050919050565b600082825260208201905092915050565b60005b8381101561245f578082015181840152602081019050612444565b60008484015250505050565b6000601f19601f8301169050919050565b600061248782612425565b6124918185612430565b93506124a1818560208601612441565b6124aa8161246b565b840191505092915050565b600060208201905081810360008301526124cf818461247c565b905092915050565b6000819050919050565b6124ea816124d7565b81146124f557600080fd5b50565b600081359050612507816124e1565b92915050565b60006020828403121561252357612522612360565b5b6000612531848285016124f8565b91505092915050565b600073ffffffffffffffffffffffffffffffffffffffff82169050919050565b60006125658261253a565b9050919050565b6125758161255a565b82525050565b6000602082019050612590600083018461256c565b92915050565b61259f8161255a565b81146125aa57600080fd5b50565b6000813590506125bc81612596565b92915050565b600080604083850312156125d9576125d8612360565b5b60006125e7858286016125ad565b92505060206125f8858286016124f8565b9150509250929050565b60008060006060848603121561261b5761261a612360565b5b6000612629868287016125ad565b935050602061263a868287016125ad565b925050604061264b868287016124f8565b9150509250925092565b60006020828403121561266b5761266a612360565b5b6000612679848285016125ad565b91505092915050565b61268b816124d7565b82525050565b60006020820190506126a66000830184612682565b92915050565b6126b5816123ef565b81146126c057600080fd5b50565b6000813590506126d2816126ac565b92915050565b600080604083850312156126ef576126ee612360565b5b60006126fd858286016125ad565b925050602061270e858286016126c3565b9150509250929050565b600081519050919050565b600082825260208201905092915050565b6000819050602082019050919050565b600082825260208201905092915050565b600061276082612425565b61276a8185612744565b935061277a818560208601612441565b6127838161246b565b840191505092915050565b600061279a8383612755565b905092915050565b6000602082019050919050565b60006127ba82612718565b6127c48185612723565b9350836020820285016127d685612734565b8060005b8581101561281257848403895281516127f3858261278e565b94506127fe836127a2565b925060208a019950506001810190506127da565b50829750879550505050505092915050565b6000602082019050818103600083015261283e81846127af565b905092915050565b600081519050919050565b600082825260208201905092915050565b6000819050602082019050919050565b61287b816123ef565b82525050565b600061288d8383612872565b60208301905092915050565b6000602082019050919050565b60006128b182612846565b6128bb8185612851565b93506128c683612862565b8060005b838110156128f75781516128de8882612881565b97506128e983612899565b9250506001810190506128ca565b5085935050505092915050565b6000602082019050818103600083015261291e81846128a6565b905092915050565b600080fd5b600080fd5b7f4e487b7100000000000000000000000000000000000000000000000000000000600052604160045260246000fd5b6129688261246b565b810181811067ffffffffffffffff8211171561298757612986612930565b5b80604052505050565b600061299a612356565b90506129a6828261295f565b919050565b600067ffffffffffffffff8211156129c6576129c5612930565b5b6129cf8261246b565b9050602081019050919050565b82818337600083830152505050565b60006129fe6129f9846129ab565b612990565b905082815260208101848484011115612a1a57612a1961292b565b5b612a258482856129dc565b509392505050565b600082601f830112612a4257612a41612926565b5b8135612a528482602086016129eb565b91505092915050565b60008060008060808587031215612a7557612a74612360565b5b6000612a83878288016125ad565b9450506020612a94878288016125ad565b9350506040612aa5878288016124f8565b925050606085013567ffffffffffffffff811115612ac657612ac5612365565b5b612ad287828801612a2d565b91505092959194509250565b600067ffffffffffffffff821115612af957612af8612930565b5b612b028261246b565b9050602081019050919050565b6000612b22612b1d84612ade565b612990565b905082815260208101848484011115612b3e57612b3d61292b565b5b612b498482856129dc565b509392505050565b600082601f830112612b6657612b65612926565b5b8135612b76848260208601612b0f565b91505092915050565b60008060408385031215612b9657612b95612360565b5b6000612ba4858286016125ad565b925050602083013567ffffffffffffffff811115612bc557612bc4612365565b5b612bd185828601612b51565b9150509250929050565b600060208284031215612bf157612bf0612360565b5b600082013567ffffffffffffffff811115612c0f57612c0e612365565b5b612c1b84828501612b51565b91505092915050565b60008060408385031215612c3b57612c3a612360565b5b6000612c49858286016125ad565b9250506020612c5a858286016125ad565b9150509250929050565b7f4e487b7100000000000000000000000000000000000000000000000000000000600052602260045260246000fd5b60006002820490506001821680612cab57607f821691505b602082108103612cbe57612cbd612c64565b5b50919050565b7f4552433732313a20617070726f76616c20746f2063757272656e74206f776e6560008201527f7200000000000000000000000000000000000000000000000000000000000000602082015250565b6000612d20602183612430565b9150612d2b82612cc4565b604082019050919050565b60006020820190508181036000830152612d4f81612d13565b9050919050565b7f4552433732313a20617070726f76652063616c6c6572206973206e6f7420746f60008201527f6b656e206f776e6572206f7220617070726f76656420666f7220616c6c000000602082015250565b6000612db2603d83612430565b9150612dbd82612d56565b604082019050919050565b60006020820190508181036000830152612de181612da5565b9050919050565b7f4552433732313a2063616c6c6572206973206e6f7420746f6b656e206f776e6560008201527f72206f7220617070726f76656400000000000000000000000000000000000000602082015250565b6000612e44602d83612430565b9150612e4f82612de8565b604082019050919050565b60006020820190508181036000830152612e7381612e37565b9050919050565b7f4552433732313a20696e76616c696420746f6b656e2049440000000000000000600082015250565b6000612eb0601883612430565b9150612ebb82612e7a565b602082019050919050565b60006020820190508181036000830152612edf81612ea3565b9050919050565b7f4552433732313a2061646472657373207a65726f206973206e6f74206120766160008201527f6c6964206f776e65720000000000000000000000000000000000000000000000602082015250565b6000612f42602983612430565b9150612f4d82612ee6565b604082019050919050565b60006020820190508181036000830152612f7181612f35565b9050919050565b600081905092915050565b6000612f8e82612425565b612f988185612f78565b9350612fa8818560208601612441565b80840191505092915050565b6000612fc08284612f83565b915081905092915050565b7f4e487b7100000000000000000000000000000000000000000000000000000000600052603260045260246000fd5b7f4e487b7100000000000000000000000000000000000000000000000000000000600052601160045260246000fd5b6000613034826124d7565b91507fffffffffffffffffffffffffffffffffffffffffffffffffffffffffffffffff820361306657613065612ffa565b5b600182019050919050565b7f546f6b656e2055524920616c7265616479206d696e7465640000000000000000600082015250565b60006130a7601883612430565b91506130b282613071565b602082019050919050565b600060208201905081810360008301526130d68161309a565b9050919050565b60006130e8826124d7565b91506130f3836124d7565b925082820190508082111561310b5761310a612ffa565b5b92915050565b7f4e6f7420656e6f75676820455448000000000000000000000000000000000000600082015250565b6000613147600e83612430565b915061315282613111565b602082019050919050565b600060208201905081810360008301526131768161313a565b9050919050565b60008190508160005260206000209050919050565b60006020601f8301049050919050565b600082821b905092915050565b6000600883026131df7fffffffffffffffffffffffffffffffffffffffffffffffffffffffffffffffff826131a2565b6131e986836131a2565b95508019841693508086168417925050509392505050565b6000819050919050565b600061322661322161321c846124d7565b613201565b6124d7565b9050919050565b6000819050919050565b6132408361320b565b61325461324c8261322d565b8484546131af565b825550505050565b600090565b61326961325c565b613274818484613237565b505050565b5b818110156132985761328d600082613261565b60018101905061327a565b5050565b601f8211156132dd576132ae8161317d565b6132b784613192565b810160208510156132c6578190505b6132da6132d285613192565b830182613279565b50505b505050565b600082821c905092915050565b6000613300600019846008026132e2565b1980831691505092915050565b600061331983836132ef565b9150826002028217905092915050565b61333282612425565b67ffffffffffffffff81111561334b5761334a612930565b5b6133558254612c93565b61336082828561329c565b600060209050601f8311600181146133935760008415613381578287015190505b61338b858261330d565b8655506133f3565b601f1984166133a18661317d565b60005b828110156133c9578489015182556001820191506020850194506020810190506133a4565b868310156133e657848901516133e2601f8916826132ef565b8355505b6001600288020188555050505b505050505050565b7f4f776e61626c653a206e6577206f776e657220697320746865207a65726f206160008201527f6464726573730000000000000000000000000000000000000000000000000000602082015250565b6000613457602683612430565b9150613462826133fb565b604082019050919050565b600060208201905081810360008301526134868161344a565b9050919050565b7f4552433732313a207472616e736665722066726f6d20696e636f72726563742060008201527f6f776e6572000000000000000000000000000000000000000000000000000000602082015250565b60006134e9602583612430565b91506134f48261348d565b604082019050919050565b60006020820190508181036000830152613518816134dc565b9050919050565b7f4552433732313a207472616e7366657220746f20746865207a65726f2061646460008201527f7265737300000000000000000000000000000000000000000000000000000000602082015250565b600061357b602483612430565b91506135868261351f565b604082019050919050565b600060208201905081810360008301526135aa8161356e565b9050919050565b7f4f776e61626c653a2063616c6c6572206973206e6f7420746865206f776e6572600082015250565b60006135e7602083612430565b91506135f2826135b1565b602082019050919050565b60006020820190508181036000830152613616816135da565b9050919050565b7f4552433732313a20617070726f766520746f2063616c6c657200000000000000600082015250565b6000613653601983612430565b915061365e8261361d565b602082019050919050565b6000602082019050818103600083015261368281613646565b9050919050565b7f4552433732313a207472616e7366657220746f206e6f6e20455243373231526560008201527f63656976657220696d706c656d656e7465720000000000000000000000000000602082015250565b60006136e5603283612430565b91506136f082613689565b604082019050919050565b60006020820190508181036000830152613714816136d8565b9050919050565b60006137278285612f83565b91506137338284612f83565b91508190509392505050565b7f45524337323155524953746f726167653a2055524920736574206f66206e6f6e60008201527f6578697374656e7420746f6b656e000000000000000000000000000000000000602082015250565b600061379b602e83612430565b91506137a68261373f565b604082019050919050565b600060208201905081810360008301526137ca8161378e565b9050919050565b600081519050919050565b600082825260208201905092915050565b60006137f8826137d1565b61380281856137dc565b9350613812818560208601612441565b61381b8161246b565b840191505092915050565b600060808201905061383b600083018761256c565b613848602083018661256c565b6138556040830185612682565b818103606083015261386781846137ed565b905095945050505050565b60008151905061388181612396565b92915050565b60006020828403121561389d5761389c612360565b5b60006138ab84828501613872565b91505092915050565b7f4e487b7100000000000000000000000000000000000000000000000000000000600052601260045260246000fd5b7f4552433732313a206d696e7420746f20746865207a65726f2061646472657373600082015250565b6000613919602083612430565b9150613924826138e3565b602082019050919050565b600060208201905081810360008301526139488161390c565b9050919050565b7f4552433732313a20746f6b656e20616c7265616479206d696e74656400000000600082015250565b6000613985601c83612430565b91506139908261394f565b602082019050919050565b600060208201905081810360008301526139b481613978565b905091905056fea2646970667358221220c87e7994327864b0da4c68d46e571dd023ccd668eb6c2f6ff74482efc5c610b664736f6c63430008110033",
	"linkReferences": {},
	"deployedLinkReferences": {}
}