{
  "_format": "hh-sol-artifact-1",
  "contractName": "myNFT",
  "sourceName": "contracts/myNFT.sol",
  "abi": [
    {
      "inputs": [],
      "stateMutability": "nonpayable",
      "type": "constructor"
    },
    {
      "anonymous": false,
      "inputs": [
        {
          "indexed": true,
          "internalType": "address",
          "name": "owner",
          "type": "address"
        },
        {
          "indexed": true,
          "internalType": "address",
          "name": "approved",
          "type": "address"
        },
        {
          "indexed": true,
          "internalType": "uint256",
          "name": "tokenId",
          "type": "uint256"
        }
      ],
      "name": "Approval",
      "type": "event"
    },
    {
      "anonymous": false,
      "inputs": [
        {
          "indexed": true,
          "internalType": "address",
          "name": "owner",
          "type": "address"
        },
        {
          "indexed": true,
          "internalType": "address",
          "name": "operator",
          "type": "address"
        },
        {
          "indexed": false,
          "internalType": "bool",
          "name": "approved",
          "type": "bool"
        }
      ],
      "name": "ApprovalForAll",
      "type": "event"
    },
    {
      "anonymous": false,
      "inputs": [
        {
          "indexed": true,
          "internalType": "address",
          "name": "previousOwner",
          "type": "address"
        },
        {
          "indexed": true,
          "internalType": "address",
          "name": "newOwner",
          "type": "address"
        }
      ],
      "name": "OwnershipTransferred",
      "type": "event"
    },
    {
      "anonymous": false,
      "inputs": [
        {
          "indexed": true,
          "internalType": "address",
          "name": "from",
          "type": "address"
        },
        {
          "indexed": true,
          "internalType": "address",
          "name": "to",
          "type": "address"
        },
        {
          "indexed": true,
          "internalType": "uint256",
          "name": "tokenId",
          "type": "uint256"
        }
      ],
      "name": "Transfer",
      "type": "event"
    },
    {
      "inputs": [
        {
          "internalType": "address",
          "name": "to",
          "type": "address"
        },
        {
          "internalType": "uint256",
          "name": "tokenId",
          "type": "uint256"
        }
      ],
      "name": "approve",
      "outputs": [],
      "stateMutability": "nonpayable",
      "type": "function"
    },
    {
      "inputs": [
        {
          "internalType": "address",
          "name": "owner",
          "type": "address"
        }
      ],
      "name": "balanceOf",
      "outputs": [
        {
          "internalType": "uint256",
          "name": "",
          "type": "uint256"
        }
      ],
      "stateMutability": "view",
      "type": "function"
    },
    {
      "inputs": [
        {
          "internalType": "uint256",
          "name": "tokenId",
          "type": "uint256"
        }
      ],
      "name": "getApproved",
      "outputs": [
        {
          "internalType": "address",
          "name": "",
          "type": "address"
        }
      ],
      "stateMutability": "view",
      "type": "function"
    },
    {
      "inputs": [],
      "name": "getMinted",
      "outputs": [
        {
          "internalType": "bool[]",
          "name": "",
          "type": "bool[]"
        }
      ],
      "stateMutability": "view",
      "type": "function"
    },
    {
      "inputs": [],
      "name": "getMintedCount",
      "outputs": [
        {
          "internalType": "uint256",
          "name": "",
          "type": "uint256"
        }
      ],
      "stateMutability": "view",
      "type": "function"
    },
    {
      "inputs": [],
      "name": "getTokens",
      "outputs": [
        {
          "internalType": "string[]",
          "name": "",
          "type": "string[]"
        }
      ],
      "stateMutability": "view",
      "type": "function"
    },
    {
      "inputs": [
        {
          "internalType": "address",
          "name": "owner",
          "type": "address"
        },
        {
          "internalType": "address",
          "name": "operator",
          "type": "address"
        }
      ],
      "name": "isApprovedForAll",
      "outputs": [
        {
          "internalType": "bool",
          "name": "",
          "type": "bool"
        }
      ],
      "stateMutability": "view",
      "type": "function"
    },
    {
      "inputs": [],
      "name": "name",
      "outputs": [
        {
          "internalType": "string",
          "name": "",
          "type": "string"
        }
      ],
      "stateMutability": "view",
      "type": "function"
    },
    {
      "inputs": [],
      "name": "owner",
      "outputs": [
        {
          "internalType": "address",
          "name": "",
          "type": "address"
        }
      ],
      "stateMutability": "view",
      "type": "function"
    },
    {
      "inputs": [
        {
          "internalType": "uint256",
          "name": "tokenId",
          "type": "uint256"
        }
      ],
      "name": "ownerOf",
      "outputs": [
        {
          "internalType": "address",
          "name": "",
          "type": "address"
        }
      ],
      "stateMutability": "view",
      "type": "function"
    },
    {
      "inputs": [
        {
          "internalType": "string",
          "name": "uri",
          "type": "string"
        }
      ],
      "name": "payMint",
      "outputs": [],
      "stateMutability": "payable",
      "type": "function"
    },
    {
      "inputs": [],
      "name": "renounceOwnership",
      "outputs": [],
      "stateMutability": "nonpayable",
      "type": "function"
    },
    {
      "inputs": [
        {
          "internalType": "address",
          "name": "to",
          "type": "address"
        },
        {
          "internalType": "string",
          "name": "uri",
          "type": "string"
        }
      ],
      "name": "safeMint",
      "outputs": [],
      "stateMutability": "nonpayable",
      "type": "function"
    },
    {
      "inputs": [
        {
          "internalType": "address",
          "name": "from",
          "type": "address"
        },
        {
          "internalType": "address",
          "name": "to",
          "type": "address"
        },
        {
          "internalType": "uint256",
          "name": "tokenId",
          "type": "uint256"
        }
      ],
      "name": "safeTransferFrom",
      "outputs": [],
      "stateMutability": "nonpayable",
      "type": "function"
    },
    {
      "inputs": [
        {
          "internalType": "address",
          "name": "from",
          "type": "address"
        },
        {
          "internalType": "address",
          "name": "to",
          "type": "address"
        },
        {
          "internalType": "uint256",
          "name": "tokenId",
          "type": "uint256"
        },
        {
          "internalType": "bytes",
          "name": "data",
          "type": "bytes"
        }
      ],
      "name": "safeTransferFrom",
      "outputs": [],
      "stateMutability": "nonpayable",
      "type": "function"
    },
    {
      "inputs": [
        {
          "internalType": "address",
          "name": "operator",
          "type": "address"
        },
        {
          "internalType": "bool",
          "name": "approved",
          "type": "bool"
        }
      ],
      "name": "setApprovalForAll",
      "outputs": [],
      "stateMutability": "nonpayable",
      "type": "function"
    },
    {
      "inputs": [
        {
          "internalType": "bytes4",
          "name": "interfaceId",
          "type": "bytes4"
        }
      ],
      "name": "supportsInterface",
      "outputs": [
        {
          "internalType": "bool",
          "name": "",
          "type": "bool"
        }
      ],
      "stateMutability": "view",
      "type": "function"
    },
    {
      "inputs": [],
      "name": "symbol",
      "outputs": [
        {
          "internalType": "string",
          "name": "",
          "type": "string"
        }
      ],
      "stateMutability": "view",
      "type": "function"
    },
    {
      "inputs": [
        {
          "internalType": "uint256",
          "name": "tokenId",
          "type": "uint256"
        }
      ],
      "name": "tokenURI",
      "outputs": [
        {
          "internalType": "string",
          "name": "",
          "type": "string"
        }
      ],
      "stateMutability": "view",
      "type": "function"
    },
    {
      "inputs": [
        {
          "internalType": "address",
          "name": "from",
          "type": "address"
        },
        {
          "internalType": "address",
          "name": "to",
          "type": "address"
        },
        {
          "internalType": "uint256",
          "name": "tokenId",
          "type": "uint256"
        }
      ],
      "name": "transferFrom",
      "outputs": [],
      "stateMutability": "nonpayable",
      "type": "function"
    },
    {
      "inputs": [
        {
          "internalType": "address",
          "name": "newOwner",
          "type": "address"
        }
      ],
      "name": "transferOwnership",
      "outputs": [],
      "stateMutability": "nonpayable",
      "type": "function"
    },
    {
      "inputs": [],
      "name": "withdraw",
      "outputs": [],
      "stateMutability": "nonpayable",
      "type": "function"
    }
  ],
  "bytecode": "0x60806040523480156200001157600080fd5b506040518060400160405280600a81526020017f536d696c657946616365000000000000000000000000000000000000000000008152506040518060400160405280600281526020017f534600000000000000000000000000000000000000000000000000000000000081525081600090816200008f91906200041a565b508060019081620000a191906200041a565b505050620000c4620000b8620000d260201b60201c565b620000da60201b60201c565b600060088190555062000501565b600033905090565b6000600760009054906101000a900473ffffffffffffffffffffffffffffffffffffffff16905081600760006101000a81548173ffffffffffffffffffffffffffffffffffffffff021916908373ffffffffffffffffffffffffffffffffffffffff1602179055508173ffffffffffffffffffffffffffffffffffffffff168173ffffffffffffffffffffffffffffffffffffffff167f8be0079c531659141344cd1fd0a4f28419497f9722a3daafe3b4186f6b6457e060405160405180910390a35050565b600081519050919050565b7f4e487b7100000000000000000000000000000000000000000000000000000000600052604160045260246000fd5b7f4e487b7100000000000000000000000000000000000000000000000000000000600052602260045260246000fd5b600060028204905060018216806200022257607f821691505b602082108103620002385762000237620001da565b5b50919050565b60008190508160005260206000209050919050565b60006020601f8301049050919050565b600082821b905092915050565b600060088302620002a27fffffffffffffffffffffffffffffffffffffffffffffffffffffffffffffffff8262000263565b620002ae868362000263565b95508019841693508086168417925050509392505050565b6000819050919050565b6000819050919050565b6000620002fb620002f5620002ef84620002c6565b620002d0565b620002c6565b9050919050565b6000819050919050565b6200031783620002da565b6200032f620003268262000302565b84845462000270565b825550505050565b600090565b6200034662000337565b620003538184846200030c565b505050565b5b818110156200037b576200036f6000826200033c565b60018101905062000359565b5050565b601f821115620003ca5762000394816200023e565b6200039f8462000253565b81016020851015620003af578190505b620003c7620003be8562000253565b83018262000358565b50505b505050565b600082821c905092915050565b6000620003ef60001984600802620003cf565b1980831691505092915050565b60006200040a8383620003dc565b9150826002028217905092915050565b6200042582620001a0565b67ffffffffffffffff811115620004415762000440620001ab565b5b6200044d825462000209565b6200045a8282856200037f565b600060209050601f8311600181146200049257600084156200047d578287015190505b620004898582620003fc565b865550620004f9565b601f198416620004a2866200023e565b60005b82811015620004cc57848901518255600182019150602085019450602081019050620004a5565b86831015620004ec5784890151620004e8601f891682620003dc565b8355505b6001600288020188555050505b505050505050565b61386180620005116000396000f3fe6080604052600436106101355760003560e01c806395d89b41116100ab578063c87b56dd1161006f578063c87b56dd14610400578063d204c45e1461043d578063e6ff51b014610466578063e985e9c514610482578063ebc9bd3b146104bf578063f2fde38b146104ea57610135565b806395d89b411461032d578063a22cb46514610358578063aa6ca80814610381578063ac72200d146103ac578063b88d4fde146103d757610135565b80633ccfd60b116100fd5780633ccfd60b1461023157806342842e0e146102485780636352211e1461027157806370a08231146102ae578063715018a6146102eb5780638da5cb5b1461030257610135565b806301ffc9a71461013a57806306fdde0314610177578063081812fc146101a2578063095ea7b3146101df57806323b872dd14610208575b600080fd5b34801561014657600080fd5b50610161600480360381019061015c9190612232565b610513565b60405161016e919061227a565b60405180910390f35b34801561018357600080fd5b5061018c6105f5565b6040516101999190612325565b60405180910390f35b3480156101ae57600080fd5b506101c960048036038101906101c4919061237d565b610687565b6040516101d691906123eb565b60405180910390f35b3480156101eb57600080fd5b5061020660048036038101906102019190612432565b6106cd565b005b34801561021457600080fd5b5061022f600480360381019061022a9190612472565b6107e4565b005b34801561023d57600080fd5b50610246610844565b005b34801561025457600080fd5b5061026f600480360381019061026a9190612472565b610895565b005b34801561027d57600080fd5b506102986004803603810190610293919061237d565b6108b5565b6040516102a591906123eb565b60405180910390f35b3480156102ba57600080fd5b506102d560048036038101906102d091906124c5565b61093b565b6040516102e29190612501565b60405180910390f35b3480156102f757600080fd5b506103006109f2565b005b34801561030e57600080fd5b50610317610a06565b60405161032491906123eb565b60405180910390f35b34801561033957600080fd5b50610342610a30565b60405161034f9190612325565b60405180910390f35b34801561036457600080fd5b5061037f600480360381019061037a9190612548565b610ac2565b005b34801561038d57600080fd5b50610396610ad8565b6040516103a39190612694565b60405180910390f35b3480156103b857600080fd5b506103c1610bee565b6040516103ce9190612774565b60405180910390f35b3480156103e357600080fd5b506103fe60048036038101906103f991906128cb565b610cc0565b005b34801561040c57600080fd5b506104276004803603810190610422919061237d565b610d22565b6040516104349190612325565b60405180910390f35b34801561044957600080fd5b50610464600480360381019061045f91906129ef565b610d34565b005b610480600480360381019061047b9190612a4b565b610de8565b005b34801561048e57600080fd5b506104a960048036038101906104a49190612a94565b610f86565b6040516104b6919061227a565b60405180910390f35b3480156104cb57600080fd5b506104d461101a565b6040516104e19190612501565b60405180910390f35b3480156104f657600080fd5b50610511600480360381019061050c91906124c5565b611024565b005b60007f80ac58cd000000000000000000000000000000000000000000000000000000007bffffffffffffffffffffffffffffffffffffffffffffffffffffffff1916827bffffffffffffffffffffffffffffffffffffffffffffffffffffffff191614806105de57507f5b5e139f000000000000000000000000000000000000000000000000000000007bffffffffffffffffffffffffffffffffffffffffffffffffffffffff1916827bffffffffffffffffffffffffffffffffffffffffffffffffffffffff1916145b806105ee57506105ed826110a7565b5b9050919050565b60606000805461060490612b03565b80601f016020809104026020016040519081016040528092919081815260200182805461063090612b03565b801561067d5780601f106106525761010080835404028352916020019161067d565b820191906000526020600020905b81548152906001019060200180831161066057829003601f168201915b5050505050905090565b600061069282611111565b6004600083815260200190815260200160002060009054906101000a900473ffffffffffffffffffffffffffffffffffffffff169050919050565b60006106d8826108b5565b90508073ffffffffffffffffffffffffffffffffffffffff168373ffffffffffffffffffffffffffffffffffffffff1603610748576040517f08c379a000000000000000000000000000000000000000000000000000000000815260040161073f90612ba6565b60405180910390fd5b8073ffffffffffffffffffffffffffffffffffffffff1661076761115c565b73ffffffffffffffffffffffffffffffffffffffff16148061079657506107958161079061115c565b610f86565b5b6107d5576040517f08c379a00000000000000000000000000000000000000000000000000000000081526004016107cc90612c38565b60405180910390fd5b6107df8383611164565b505050565b6107f56107ef61115c565b8261121d565b610834576040517f08c379a000000000000000000000000000000000000000000000000000000000815260040161082b90612cca565b60405180910390fd5b61083f8383836112b2565b505050565b61084c6115ab565b3373ffffffffffffffffffffffffffffffffffffffff166108fc479081150290604051600060405180830381858888f19350505050158015610892573d6000803e3d6000fd5b50565b6108b083838360405180602001604052806000815250610cc0565b505050565b6000806108c183611629565b9050600073ffffffffffffffffffffffffffffffffffffffff168173ffffffffffffffffffffffffffffffffffffffff1603610932576040517f08c379a000000000000000000000000000000000000000000000000000000000815260040161092990612d36565b60405180910390fd5b80915050919050565b60008073ffffffffffffffffffffffffffffffffffffffff168273ffffffffffffffffffffffffffffffffffffffff16036109ab576040517f08c379a00000000000000000000000000000000000000000000000000000000081526004016109a290612dc8565b60405180910390fd5b600360008373ffffffffffffffffffffffffffffffffffffffff1673ffffffffffffffffffffffffffffffffffffffff168152602001908152602001600020549050919050565b6109fa6115ab565b610a046000611666565b565b6000600760009054906101000a900473ffffffffffffffffffffffffffffffffffffffff16905090565b606060018054610a3f90612b03565b80601f0160208091040260200160405190810160405280929190818152602001828054610a6b90612b03565b8015610ab85780601f10610a8d57610100808354040283529160200191610ab8565b820191906000526020600020905b815481529060010190602001808311610a9b57829003601f168201915b5050505050905090565b610ad4610acd61115c565b838361172c565b5050565b6060600a60003373ffffffffffffffffffffffffffffffffffffffff1673ffffffffffffffffffffffffffffffffffffffff168152602001908152602001600020805480602002602001604051908101604052809291908181526020016000905b82821015610be5578382906000526020600020018054610b5890612b03565b80601f0160208091040260200160405190810160405280929190818152602001828054610b8490612b03565b8015610bd15780601f10610ba657610100808354040283529160200191610bd1565b820191906000526020600020905b815481529060010190602001808311610bb457829003601f168201915b505050505081526020019060010190610b39565b50505050905090565b6060600060085467ffffffffffffffff811115610c0e57610c0d6127a0565b5b604051908082528060200260200182016040528015610c3c5781602001602082028036833780820191505090505b50905060005b600854811015610cb8576009610c5782610d22565b604051610c649190612e24565b908152602001604051809103902060009054906101000a900460ff16828281518110610c9357610c92612e3b565b5b6020026020010190151590811515815250508080610cb090612e99565b915050610c42565b508091505090565b610cd1610ccb61115c565b8361121d565b610d10576040517f08c379a0000000000000000000000000000000000000000000000000000000008152600401610d0790612cca565b60405180910390fd5b610d1c84848484611898565b50505050565b6060610d2d826118f4565b9050919050565b610d3c6115ab565b60001515600982604051610d509190612e24565b908152602001604051809103902060009054906101000a900460ff16151514610dae576040517f08c379a0000000000000000000000000000000000000000000000000000000008152600401610da590612f2d565b60405180910390fd5b60006008549050600160086000828254610dc89190612f4d565b92505081905550610dd98382611a06565b610de38183611a24565b505050565b66038d7ea4c68000341015610e32576040517f08c379a0000000000000000000000000000000000000000000000000000000008152600401610e2990612fcd565b60405180910390fd5b60001515600982604051610e469190612e24565b908152602001604051809103902060009054906101000a900460ff16151514610ea4576040517f08c379a0000000000000000000000000000000000000000000000000000000008152600401610e9b90612f2d565b60405180910390fd5b600a60003373ffffffffffffffffffffffffffffffffffffffff1673ffffffffffffffffffffffffffffffffffffffff16815260200190815260200160002081908060018154018082558091505060019003906000526020600020016000909190919091509081610f159190613199565b506001600982604051610f289190612e24565b908152602001604051809103902060006101000a81548160ff02191690831515021790555060006008549050600160086000828254610f679190612f4d565b92505081905550610f783382611a06565b610f828183611a24565b5050565b6000600560008473ffffffffffffffffffffffffffffffffffffffff1673ffffffffffffffffffffffffffffffffffffffff16815260200190815260200160002060008373ffffffffffffffffffffffffffffffffffffffff1673ffffffffffffffffffffffffffffffffffffffff16815260200190815260200160002060009054906101000a900460ff16905092915050565b6000600854905090565b61102c6115ab565b600073ffffffffffffffffffffffffffffffffffffffff168173ffffffffffffffffffffffffffffffffffffffff160361109b576040517f08c379a0000000000000000000000000000000000000000000000000000000008152600401611092906132dd565b60405180910390fd5b6110a481611666565b50565b60007f01ffc9a7000000000000000000000000000000000000000000000000000000007bffffffffffffffffffffffffffffffffffffffffffffffffffffffff1916827bffffffffffffffffffffffffffffffffffffffffffffffffffffffff1916149050919050565b61111a81611a91565b611159576040517f08c379a000000000000000000000000000000000000000000000000000000000815260040161115090612d36565b60405180910390fd5b50565b600033905090565b816004600083815260200190815260200160002060006101000a81548173ffffffffffffffffffffffffffffffffffffffff021916908373ffffffffffffffffffffffffffffffffffffffff160217905550808273ffffffffffffffffffffffffffffffffffffffff166111d7836108b5565b73ffffffffffffffffffffffffffffffffffffffff167f8c5be1e5ebec7d5bd14f71427d1e84f3dd0314c0f7b2291e5b200ac8c7c3b92560405160405180910390a45050565b600080611229836108b5565b90508073ffffffffffffffffffffffffffffffffffffffff168473ffffffffffffffffffffffffffffffffffffffff16148061126b575061126a8185610f86565b5b806112a957508373ffffffffffffffffffffffffffffffffffffffff1661129184610687565b73ffffffffffffffffffffffffffffffffffffffff16145b91505092915050565b8273ffffffffffffffffffffffffffffffffffffffff166112d2826108b5565b73ffffffffffffffffffffffffffffffffffffffff1614611328576040517f08c379a000000000000000000000000000000000000000000000000000000000815260040161131f9061336f565b60405180910390fd5b600073ffffffffffffffffffffffffffffffffffffffff168273ffffffffffffffffffffffffffffffffffffffff1603611397576040517f08c379a000000000000000000000000000000000000000000000000000000000815260040161138e90613401565b60405180910390fd5b6113a48383836001611ad2565b8273ffffffffffffffffffffffffffffffffffffffff166113c4826108b5565b73ffffffffffffffffffffffffffffffffffffffff161461141a576040517f08c379a00000000000000000000000000000000000000000000000000000000081526004016114119061336f565b60405180910390fd5b6004600082815260200190815260200160002060006101000a81549073ffffffffffffffffffffffffffffffffffffffff02191690556001600360008573ffffffffffffffffffffffffffffffffffffffff1673ffffffffffffffffffffffffffffffffffffffff168152602001908152602001600020600082825403925050819055506001600360008473ffffffffffffffffffffffffffffffffffffffff1673ffffffffffffffffffffffffffffffffffffffff16815260200190815260200160002060008282540192505081905550816002600083815260200190815260200160002060006101000a81548173ffffffffffffffffffffffffffffffffffffffff021916908373ffffffffffffffffffffffffffffffffffffffff160217905550808273ffffffffffffffffffffffffffffffffffffffff168473ffffffffffffffffffffffffffffffffffffffff167fddf252ad1be2c89b69c2b068fc378daa952ba7f163c4a11628f55a4df523b3ef60405160405180910390a46115a68383836001611ad8565b505050565b6115b361115c565b73ffffffffffffffffffffffffffffffffffffffff166115d1610a06565b73ffffffffffffffffffffffffffffffffffffffff1614611627576040517f08c379a000000000000000000000000000000000000000000000000000000000815260040161161e9061346d565b60405180910390fd5b565b60006002600083815260200190815260200160002060009054906101000a900473ffffffffffffffffffffffffffffffffffffffff169050919050565b6000600760009054906101000a900473ffffffffffffffffffffffffffffffffffffffff16905081600760006101000a81548173ffffffffffffffffffffffffffffffffffffffff021916908373ffffffffffffffffffffffffffffffffffffffff1602179055508173ffffffffffffffffffffffffffffffffffffffff168173ffffffffffffffffffffffffffffffffffffffff167f8be0079c531659141344cd1fd0a4f28419497f9722a3daafe3b4186f6b6457e060405160405180910390a35050565b8173ffffffffffffffffffffffffffffffffffffffff168373ffffffffffffffffffffffffffffffffffffffff160361179a576040517f08c379a0000000000000000000000000000000000000000000000000000000008152600401611791906134d9565b60405180910390fd5b80600560008573ffffffffffffffffffffffffffffffffffffffff1673ffffffffffffffffffffffffffffffffffffffff16815260200190815260200160002060008473ffffffffffffffffffffffffffffffffffffffff1673ffffffffffffffffffffffffffffffffffffffff16815260200190815260200160002060006101000a81548160ff0219169083151502179055508173ffffffffffffffffffffffffffffffffffffffff168373ffffffffffffffffffffffffffffffffffffffff167f17307eab39ab6107e8899845ad3d59bd9653f200f220920489ca2b5937696c318360405161188b919061227a565b60405180910390a3505050565b6118a38484846112b2565b6118af84848484611ade565b6118ee576040517f08c379a00000000000000000000000000000000000000000000000000000000081526004016118e59061356b565b60405180910390fd5b50505050565b60606118ff82611111565b600060066000848152602001908152602001600020805461191f90612b03565b80601f016020809104026020016040519081016040528092919081815260200182805461194b90612b03565b80156119985780601f1061196d57610100808354040283529160200191611998565b820191906000526020600020905b81548152906001019060200180831161197b57829003601f168201915b5050505050905060006119a9611c65565b905060008151036119be578192505050611a01565b6000825111156119f35780826040516020016119db92919061358b565b60405160208183030381529060405292505050611a01565b6119fc84611ca2565b925050505b919050565b611a20828260405180602001604052806000815250611d0a565b5050565b611a2d82611a91565b611a6c576040517f08c379a0000000000000000000000000000000000000000000000000000000008152600401611a6390613621565b60405180910390fd5b80600660008481526020019081526020016000209081611a8c9190613199565b505050565b60008073ffffffffffffffffffffffffffffffffffffffff16611ab383611629565b73ffffffffffffffffffffffffffffffffffffffff1614159050919050565b50505050565b50505050565b6000611aff8473ffffffffffffffffffffffffffffffffffffffff16611d65565b15611c58578373ffffffffffffffffffffffffffffffffffffffff1663150b7a02611b2861115c565b8786866040518563ffffffff1660e01b8152600401611b4a9493929190613696565b6020604051808303816000875af1925050508015611b8657506040513d601f19601f82011682018060405250810190611b8391906136f7565b60015b611c08573d8060008114611bb6576040519150601f19603f3d011682016040523d82523d6000602084013e611bbb565b606091505b506000815103611c00576040517f08c379a0000000000000000000000000000000000000000000000000000000008152600401611bf79061356b565b60405180910390fd5b805181602001fd5b63150b7a0260e01b7bffffffffffffffffffffffffffffffffffffffffffffffffffffffff1916817bffffffffffffffffffffffffffffffffffffffffffffffffffffffff191614915050611c5d565b600190505b949350505050565b60606040518060400160405280600781526020017f697066733a2f2f00000000000000000000000000000000000000000000000000815250905090565b6060611cad82611111565b6000611cb7611c65565b90506000815111611cd75760405180602001604052806000815250611d02565b80611ce184611d88565b604051602001611cf292919061358b565b6040516020818303038152906040525b915050919050565b611d148383611e56565b611d216000848484611ade565b611d60576040517f08c379a0000000000000000000000000000000000000000000000000000000008152600401611d579061356b565b60405180910390fd5b505050565b6000808273ffffffffffffffffffffffffffffffffffffffff163b119050919050565b606060006001611d9784612073565b01905060008167ffffffffffffffff811115611db657611db56127a0565b5b6040519080825280601f01601f191660200182016040528015611de85781602001600182028036833780820191505090505b509050600082602001820190505b600115611e4b578080600190039150507f3031323334353637383961626364656600000000000000000000000000000000600a86061a8153600a8581611e3f57611e3e613724565b5b04945060008503611df6575b819350505050919050565b600073ffffffffffffffffffffffffffffffffffffffff168273ffffffffffffffffffffffffffffffffffffffff1603611ec5576040517f08c379a0000000000000000000000000000000000000000000000000000000008152600401611ebc9061379f565b60405180910390fd5b611ece81611a91565b15611f0e576040517f08c379a0000000000000000000000000000000000000000000000000000000008152600401611f059061380b565b60405180910390fd5b611f1c600083836001611ad2565b611f2581611a91565b15611f65576040517f08c379a0000000000000000000000000000000000000000000000000000000008152600401611f5c9061380b565b60405180910390fd5b6001600360008473ffffffffffffffffffffffffffffffffffffffff1673ffffffffffffffffffffffffffffffffffffffff16815260200190815260200160002060008282540192505081905550816002600083815260200190815260200160002060006101000a81548173ffffffffffffffffffffffffffffffffffffffff021916908373ffffffffffffffffffffffffffffffffffffffff160217905550808273ffffffffffffffffffffffffffffffffffffffff16600073ffffffffffffffffffffffffffffffffffffffff167fddf252ad1be2c89b69c2b068fc378daa952ba7f163c4a11628f55a4df523b3ef60405160405180910390a461206f600083836001611ad8565b5050565b600080600090507a184f03e93ff9f4daa797ed6e38ed64bf6a1f01000000000000000083106120d1577a184f03e93ff9f4daa797ed6e38ed64bf6a1f01000000000000000083816120c7576120c6613724565b5b0492506040810190505b6d04ee2d6d415b85acef8100000000831061210e576d04ee2d6d415b85acef8100000000838161210457612103613724565b5b0492506020810190505b662386f26fc10000831061213d57662386f26fc10000838161213357612132613724565b5b0492506010810190505b6305f5e1008310612166576305f5e100838161215c5761215b613724565b5b0492506008810190505b612710831061218b57612710838161218157612180613724565b5b0492506004810190505b606483106121ae57606483816121a4576121a3613724565b5b0492506002810190505b600a83106121bd576001810190505b80915050919050565b6000604051905090565b600080fd5b600080fd5b60007fffffffff0000000000000000000000000000000000000000000000000000000082169050919050565b61220f816121da565b811461221a57600080fd5b50565b60008135905061222c81612206565b92915050565b600060208284031215612248576122476121d0565b5b60006122568482850161221d565b91505092915050565b60008115159050919050565b6122748161225f565b82525050565b600060208201905061228f600083018461226b565b92915050565b600081519050919050565b600082825260208201905092915050565b60005b838110156122cf5780820151818401526020810190506122b4565b60008484015250505050565b6000601f19601f8301169050919050565b60006122f782612295565b61230181856122a0565b93506123118185602086016122b1565b61231a816122db565b840191505092915050565b6000602082019050818103600083015261233f81846122ec565b905092915050565b6000819050919050565b61235a81612347565b811461236557600080fd5b50565b60008135905061237781612351565b92915050565b600060208284031215612393576123926121d0565b5b60006123a184828501612368565b91505092915050565b600073ffffffffffffffffffffffffffffffffffffffff82169050919050565b60006123d5826123aa565b9050919050565b6123e5816123ca565b82525050565b600060208201905061240060008301846123dc565b92915050565b61240f816123ca565b811461241a57600080fd5b50565b60008135905061242c81612406565b92915050565b60008060408385031215612449576124486121d0565b5b60006124578582860161241d565b925050602061246885828601612368565b9150509250929050565b60008060006060848603121561248b5761248a6121d0565b5b60006124998682870161241d565b93505060206124aa8682870161241d565b92505060406124bb86828701612368565b9150509250925092565b6000602082840312156124db576124da6121d0565b5b60006124e98482850161241d565b91505092915050565b6124fb81612347565b82525050565b600060208201905061251660008301846124f2565b92915050565b6125258161225f565b811461253057600080fd5b50565b6000813590506125428161251c565b92915050565b6000806040838503121561255f5761255e6121d0565b5b600061256d8582860161241d565b925050602061257e85828601612533565b9150509250929050565b600081519050919050565b600082825260208201905092915050565b6000819050602082019050919050565b600082825260208201905092915050565b60006125d082612295565b6125da81856125b4565b93506125ea8185602086016122b1565b6125f3816122db565b840191505092915050565b600061260a83836125c5565b905092915050565b6000602082019050919050565b600061262a82612588565b6126348185612593565b935083602082028501612646856125a4565b8060005b85811015612682578484038952815161266385826125fe565b945061266e83612612565b925060208a0199505060018101905061264a565b50829750879550505050505092915050565b600060208201905081810360008301526126ae818461261f565b905092915050565b600081519050919050565b600082825260208201905092915050565b6000819050602082019050919050565b6126eb8161225f565b82525050565b60006126fd83836126e2565b60208301905092915050565b6000602082019050919050565b6000612721826126b6565b61272b81856126c1565b9350612736836126d2565b8060005b8381101561276757815161274e88826126f1565b975061275983612709565b92505060018101905061273a565b5085935050505092915050565b6000602082019050818103600083015261278e8184612716565b905092915050565b600080fd5b600080fd5b7f4e487b7100000000000000000000000000000000000000000000000000000000600052604160045260246000fd5b6127d8826122db565b810181811067ffffffffffffffff821117156127f7576127f66127a0565b5b80604052505050565b600061280a6121c6565b905061281682826127cf565b919050565b600067ffffffffffffffff821115612836576128356127a0565b5b61283f826122db565b9050602081019050919050565b82818337600083830152505050565b600061286e6128698461281b565b612800565b90508281526020810184848401111561288a5761288961279b565b5b61289584828561284c565b509392505050565b600082601f8301126128b2576128b1612796565b5b81356128c284826020860161285b565b91505092915050565b600080600080608085870312156128e5576128e46121d0565b5b60006128f38782880161241d565b94505060206129048782880161241d565b935050604061291587828801612368565b925050606085013567ffffffffffffffff811115612936576129356121d5565b5b6129428782880161289d565b91505092959194509250565b600067ffffffffffffffff821115612969576129686127a0565b5b612972826122db565b9050602081019050919050565b600061299261298d8461294e565b612800565b9050828152602081018484840111156129ae576129ad61279b565b5b6129b984828561284c565b509392505050565b600082601f8301126129d6576129d5612796565b5b81356129e684826020860161297f565b91505092915050565b60008060408385031215612a0657612a056121d0565b5b6000612a148582860161241d565b925050602083013567ffffffffffffffff811115612a3557612a346121d5565b5b612a41858286016129c1565b9150509250929050565b600060208284031215612a6157612a606121d0565b5b600082013567ffffffffffffffff811115612a7f57612a7e6121d5565b5b612a8b848285016129c1565b91505092915050565b60008060408385031215612aab57612aaa6121d0565b5b6000612ab98582860161241d565b9250506020612aca8582860161241d565b9150509250929050565b7f4e487b7100000000000000000000000000000000000000000000000000000000600052602260045260246000fd5b60006002820490506001821680612b1b57607f821691505b602082108103612b2e57612b2d612ad4565b5b50919050565b7f4552433732313a20617070726f76616c20746f2063757272656e74206f776e6560008201527f7200000000000000000000000000000000000000000000000000000000000000602082015250565b6000612b906021836122a0565b9150612b9b82612b34565b604082019050919050565b60006020820190508181036000830152612bbf81612b83565b9050919050565b7f4552433732313a20617070726f76652063616c6c6572206973206e6f7420746f60008201527f6b656e206f776e6572206f7220617070726f76656420666f7220616c6c000000602082015250565b6000612c22603d836122a0565b9150612c2d82612bc6565b604082019050919050565b60006020820190508181036000830152612c5181612c15565b9050919050565b7f4552433732313a2063616c6c6572206973206e6f7420746f6b656e206f776e6560008201527f72206f7220617070726f76656400000000000000000000000000000000000000602082015250565b6000612cb4602d836122a0565b9150612cbf82612c58565b604082019050919050565b60006020820190508181036000830152612ce381612ca7565b9050919050565b7f4552433732313a20696e76616c696420746f6b656e2049440000000000000000600082015250565b6000612d206018836122a0565b9150612d2b82612cea565b602082019050919050565b60006020820190508181036000830152612d4f81612d13565b9050919050565b7f4552433732313a2061646472657373207a65726f206973206e6f74206120766160008201527f6c6964206f776e65720000000000000000000000000000000000000000000000602082015250565b6000612db26029836122a0565b9150612dbd82612d56565b604082019050919050565b60006020820190508181036000830152612de181612da5565b9050919050565b600081905092915050565b6000612dfe82612295565b612e088185612de8565b9350612e188185602086016122b1565b80840191505092915050565b6000612e308284612df3565b915081905092915050565b7f4e487b7100000000000000000000000000000000000000000000000000000000600052603260045260246000fd5b7f4e487b7100000000000000000000000000000000000000000000000000000000600052601160045260246000fd5b6000612ea482612347565b91507fffffffffffffffffffffffffffffffffffffffffffffffffffffffffffffffff8203612ed657612ed5612e6a565b5b600182019050919050565b7f546f6b656e2055524920616c7265616479206d696e7465640000000000000000600082015250565b6000612f176018836122a0565b9150612f2282612ee1565b602082019050919050565b60006020820190508181036000830152612f4681612f0a565b9050919050565b6000612f5882612347565b9150612f6383612347565b9250828201905080821115612f7b57612f7a612e6a565b5b92915050565b7f4e6f7420656e6f75676820455448000000000000000000000000000000000000600082015250565b6000612fb7600e836122a0565b9150612fc282612f81565b602082019050919050565b60006020820190508181036000830152612fe681612faa565b9050919050565b60008190508160005260206000209050919050565b60006020601f8301049050919050565b600082821b905092915050565b60006008830261304f7fffffffffffffffffffffffffffffffffffffffffffffffffffffffffffffffff82613012565b6130598683613012565b95508019841693508086168417925050509392505050565b6000819050919050565b600061309661309161308c84612347565b613071565b612347565b9050919050565b6000819050919050565b6130b08361307b565b6130c46130bc8261309d565b84845461301f565b825550505050565b600090565b6130d96130cc565b6130e48184846130a7565b505050565b5b81811015613108576130fd6000826130d1565b6001810190506130ea565b5050565b601f82111561314d5761311e81612fed565b61312784613002565b81016020851015613136578190505b61314a61314285613002565b8301826130e9565b50505b505050565b600082821c905092915050565b600061317060001984600802613152565b1980831691505092915050565b6000613189838361315f565b9150826002028217905092915050565b6131a282612295565b67ffffffffffffffff8111156131bb576131ba6127a0565b5b6131c58254612b03565b6131d082828561310c565b600060209050601f83116001811461320357600084156131f1578287015190505b6131fb858261317d565b865550613263565b601f19841661321186612fed565b60005b8281101561323957848901518255600182019150602085019450602081019050613214565b868310156132565784890151613252601f89168261315f565b8355505b6001600288020188555050505b505050505050565b7f4f776e61626c653a206e6577206f776e657220697320746865207a65726f206160008201527f6464726573730000000000000000000000000000000000000000000000000000602082015250565b60006132c76026836122a0565b91506132d28261326b565b604082019050919050565b600060208201905081810360008301526132f6816132ba565b9050919050565b7f4552433732313a207472616e736665722066726f6d20696e636f72726563742060008201527f6f776e6572000000000000000000000000000000000000000000000000000000602082015250565b60006133596025836122a0565b9150613364826132fd565b604082019050919050565b600060208201905081810360008301526133888161334c565b9050919050565b7f4552433732313a207472616e7366657220746f20746865207a65726f2061646460008201527f7265737300000000000000000000000000000000000000000000000000000000602082015250565b60006133eb6024836122a0565b91506133f68261338f565b604082019050919050565b6000602082019050818103600083015261341a816133de565b9050919050565b7f4f776e61626c653a2063616c6c6572206973206e6f7420746865206f776e6572600082015250565b60006134576020836122a0565b915061346282613421565b602082019050919050565b600060208201905081810360008301526134868161344a565b9050919050565b7f4552433732313a20617070726f766520746f2063616c6c657200000000000000600082015250565b60006134c36019836122a0565b91506134ce8261348d565b602082019050919050565b600060208201905081810360008301526134f2816134b6565b9050919050565b7f4552433732313a207472616e7366657220746f206e6f6e20455243373231526560008201527f63656976657220696d706c656d656e7465720000000000000000000000000000602082015250565b60006135556032836122a0565b9150613560826134f9565b604082019050919050565b6000602082019050818103600083015261358481613548565b9050919050565b60006135978285612df3565b91506135a38284612df3565b91508190509392505050565b7f45524337323155524953746f726167653a2055524920736574206f66206e6f6e60008201527f6578697374656e7420746f6b656e000000000000000000000000000000000000602082015250565b600061360b602e836122a0565b9150613616826135af565b604082019050919050565b6000602082019050818103600083015261363a816135fe565b9050919050565b600081519050919050565b600082825260208201905092915050565b600061366882613641565b613672818561364c565b93506136828185602086016122b1565b61368b816122db565b840191505092915050565b60006080820190506136ab60008301876123dc565b6136b860208301866123dc565b6136c560408301856124f2565b81810360608301526136d7818461365d565b905095945050505050565b6000815190506136f181612206565b92915050565b60006020828403121561370d5761370c6121d0565b5b600061371b848285016136e2565b91505092915050565b7f4e487b7100000000000000000000000000000000000000000000000000000000600052601260045260246000fd5b7f4552433732313a206d696e7420746f20746865207a65726f2061646472657373600082015250565b60006137896020836122a0565b915061379482613753565b602082019050919050565b600060208201905081810360008301526137b88161377c565b9050919050565b7f4552433732313a20746f6b656e20616c7265616479206d696e74656400000000600082015250565b60006137f5601c836122a0565b9150613800826137bf565b602082019050919050565b60006020820190508181036000830152613824816137e8565b905091905056fea264697066735822122074b45711e4fb3bc153d1137ec6fa5b9cf5198d1ac548b936ab0c10c66f03aad864736f6c63430008110033",
  "linkReferences": {},
  "deployedLinkReferences": {}
}